{
  "contractName": "LiquidityVesting",
  "abi": [
    {
      "inputs": [],
      "stateMutability": "nonpayable",
      "type": "constructor"
    },
    {
      "inputs": [],
      "name": "_beneficiary",
      "outputs": [
        {
          "internalType": "address",
          "name": "",
          "type": "address"
        }
      ],
      "stateMutability": "view",
      "type": "function"
    },
    {
      "inputs": [
        {
          "internalType": "uint256",
          "name": "",
          "type": "uint256"
        }
      ],
      "name": "_releases",
      "outputs": [
        {
          "internalType": "uint256",
          "name": "timestamp",
          "type": "uint256"
        },
        {
          "internalType": "uint256",
          "name": "amount",
          "type": "uint256"
        },
        {
          "internalType": "bool",
          "name": "released",
          "type": "bool"
        }
      ],
      "stateMutability": "view",
      "type": "function"
    },
    {
      "inputs": [],
      "name": "_token",
      "outputs": [
        {
          "internalType": "contract IBEP20",
          "name": "",
          "type": "address"
        }
      ],
      "stateMutability": "view",
      "type": "function"
    },
    {
      "inputs": [],
      "name": "beneficiary",
      "outputs": [
        {
          "internalType": "address",
          "name": "",
          "type": "address"
        }
      ],
      "stateMutability": "view",
      "type": "function"
    },
    {
      "inputs": [],
      "name": "getReleaseAmount",
      "outputs": [
        {
          "internalType": "uint256",
          "name": "",
          "type": "uint256"
        }
      ],
      "stateMutability": "view",
      "type": "function"
    },
    {
      "inputs": [],
      "name": "release",
      "outputs": [],
      "stateMutability": "nonpayable",
      "type": "function"
    },
    {
      "inputs": [],
      "name": "token",
      "outputs": [
        {
          "internalType": "contract IBEP20",
          "name": "",
          "type": "address"
        }
      ],
      "stateMutability": "view",
      "type": "function"
    }
  ],
  "bytecode": "0x60c060405273eaf7d8395cce52daef138d39a1cefa51b97c15ae600160006101000a81548173ffffffffffffffffffffffffffffffffffffffff021916908373ffffffffffffffffffffffffffffffffffffffff160217905550735a4d67acb74038085e98dd85f4ccccb5972fbc92600260006101000a81548173ffffffffffffffffffffffffffffffffffffffff021916908373ffffffffffffffffffffffffffffffffffffffff1602179055506040518061050001604052806360bbbba063ffffffff1681526020016360dd058063ffffffff168152602001636105e40063ffffffff16815260200163612ec28063ffffffff1681526020016361564f8063ffffffff16815260200163617f2e0063ffffffff1681526020016361a6bb0063ffffffff1681526020016361cf998063ffffffff1681526020016361f8780063ffffffff16815260200163621d620063ffffffff168152602001636246408063ffffffff16815260200163626dcd8063ffffffff168152602001636296ac0063ffffffff1681526020016362be390063ffffffff1681526020016362e7178063ffffffff16815260200163630ff60063ffffffff168152602001636337830063ffffffff168152602001636360618063ffffffff168152602001636387ee8063ffffffff1681526020016363b0cd0063ffffffff1681526020016363d9ab8063ffffffff1681526020016363fe958063ffffffff168152602001636427740063ffffffff16815260200163644f010063ffffffff168152602001636477df8063ffffffff16815260200163649f6c8063ffffffff1681526020016364c84b0063ffffffff1681526020016364f1298063ffffffff168152602001636518b68063ffffffff168152602001636541950063ffffffff168152602001636569220063ffffffff168152602001636592008063ffffffff1681526020016365badf0063ffffffff1681526020016365e11a8063ffffffff168152602001636609f90063ffffffff168152602001636631860063ffffffff16815260200163665a648063ffffffff168152602001636681f18063ffffffff1681526020016366aad00063ffffffff1681526020016366d3ae8063ffffffff1681525060039060286200034a92919062000aa9565b506040518061050001604052806a01a129e9fb3cab2b4000006affffffffffffffffffffff1681526020016a01a129e9fb3cab2b4000006affffffffffffffffffffff1681526020016a01a129e9fb3cab2b4000006affffffffffffffffffffff1681526020016a01a129e9fb3cab2b4000006affffffffffffffffffffff1681526020016a01a129e9fb3cab2b4000006affffffffffffffffffffff1681526020016a01a129e9fb3cab2b4000006affffffffffffffffffffff1681526020016a01a129e9fb3cab2b4000006affffffffffffffffffffff1681526020016a01a129e9fb3cab2b4000006affffffffffffffffffffff1681526020016a01a129e9fb3cab2b4000006affffffffffffffffffffff1681526020016a01a129e9fb3cab2b4000006affffffffffffffffffffff1681526020016a01a129e9fb3cab2b4000006affffffffffffffffffffff1681526020016a01a129e9fb3cab2b4000006affffffffffffffffffffff1681526020016a01a129e9fb3cab2b4000006affffffffffffffffffffff1681526020016a01a129e9fb3cab2b4000006affffffffffffffffffffff1681526020016a01a129e9fb3cab2b4000006affffffffffffffffffffff1681526020016a01a129e9fb3cab2b4000006affffffffffffffffffffff1681526020016a01a129e9fb3cab2b4000006affffffffffffffffffffff1681526020016a01a129e9fb3cab2b4000006affffffffffffffffffffff1681526020016a01a129e9fb3cab2b4000006affffffffffffffffffffff1681526020016a01a129e9fb3cab2b4000006affffffffffffffffffffff1681526020016a01a129e9fb3cab2b4000006affffffffffffffffffffff1681526020016a01a129e9fb3cab2b4000006affffffffffffffffffffff1681526020016a01a129e9fb3cab2b4000006affffffffffffffffffffff1681526020016a01a129e9fb3cab2b4000006affffffffffffffffffffff1681526020016a01a129e9fb3cab2b4000006affffffffffffffffffffff1681526020016a01a129e9fb3cab2b4000006affffffffffffffffffffff1681526020016a01a129e9fb3cab2b4000006affffffffffffffffffffff1681526020016a01a129e9fb3cab2b4000006affffffffffffffffffffff1681526020016a01a129e9fb3cab2b4000006affffffffffffffffffffff1681526020016a01a129e9fb3cab2b4000006affffffffffffffffffffff1681526020016a01a129e9fb3cab2b4000006affffffffffffffffffffff1681526020016a01a129e9fb3cab2b4000006affffffffffffffffffffff1681526020016a01a129e9fb3cab2b4000006affffffffffffffffffffff1681526020016a01a129e9fb3cab2b4000006affffffffffffffffffffff1681526020016a01a129e9fb3cab2b4000006affffffffffffffffffffff1681526020016a01a129e9fb3cab2b4000006affffffffffffffffffffff1681526020016a01a129e9fb3cab2b4000006affffffffffffffffffffff1681526020016a01a129e9fb3cab2b4000006affffffffffffffffffffff1681526020016a01a129e9fb3cab2b4000006affffffffffffffffffffff1681526020016a01a129e9fb3cab2b4000006affffffffffffffffffffff1681525060049060286200081792919062000b03565b503480156200082557600080fd5b50600160009054906101000a900473ffffffffffffffffffffffffffffffffffffffff16600260009054906101000a900473ffffffffffffffffffffffffffffffffffffffff166003805480602002602001604051908101604052809291908181526020018280548015620008ba57602002820191906000526020600020905b815481526020019060010190808311620008a5575b505050505060048054806020026020016040519081016040528092919081815260200182805480156200090d57602002820191906000526020600020905b815481526020019060010190808311620008f8575b505050505080518251146200096e576040517f08c379a0000000000000000000000000000000000000000000000000000000008152600401808060200182810382526027815260200180620017d46027913960400191505060405180910390fd5b8373ffffffffffffffffffffffffffffffffffffffff1660808173ffffffffffffffffffffffffffffffffffffffff1660601b815250508273ffffffffffffffffffffffffffffffffffffffff1660a08173ffffffffffffffffffffffffffffffffffffffff1660601b8152505060005b825181101562000a9e576000604051806060016040528085848151811062000a0357fe5b6020026020010151815260200184848151811062000a1d57fe5b60200260200101518152602001600015158152509080600181540180825580915050600190039060005260206000209060030201600090919091909150600082015181600001556020820151816001015560408201518160020160006101000a81548160ff02191690831515021790555050508080600101915050620009df565b505050505062000b83565b82805482825590600052602060002090810192821562000af0579160200282015b8281111562000aef578251829063ffffffff1690559160200191906001019062000aca565b5b50905062000aff919062000b64565b5090565b82805482825590600052602060002090810192821562000b51579160200282015b8281111562000b5057825182906affffffffffffffffffffff1690559160200191906001019062000b24565b5b50905062000b60919062000b64565b5090565b5b8082111562000b7f57600081600090555060010162000b65565b5090565b60805160601c60a05160601c610c0462000bd0600039806101d052806102b7528061067c5250806102dd52806104eb52806105b4528061069e528061072b52806107515250610c046000f3fe608060405234801561001057600080fd5b506004361061007d5760003560e01c806386d1a69f1161005b57806386d1a69f146101085780638b110a7714610112578063ecd0c0c314610164578063fc0c546a146101985761007d565b806338af3eed146100825780635f8a7eab146100b6578063828cedb7146100d4575b600080fd5b61008a6101cc565b604051808273ffffffffffffffffffffffffffffffffffffffff16815260200191505060405180910390f35b6100be6101f4565b6040518082815260200191505060405180910390f35b6100dc6102b5565b604051808273ffffffffffffffffffffffffffffffffffffffff16815260200191505060405180910390f35b6101106102d9565b005b61013e6004803603602081101561012857600080fd5b81019080803590602001909291905050506106e5565b604051808481526020018381526020018215158152602001935050505060405180910390f35b61016c610729565b604051808273ffffffffffffffffffffffffffffffffffffffff16815260200191505060405180910390f35b6101a061074d565b604051808273ffffffffffffffffffffffffffffffffffffffff16815260200191505060405180910390f35b60007f0000000000000000000000000000000000000000000000000000000000000000905090565b6000806000905060005b6000805490508110156102ad57610213610b35565b6000828154811061022057fe5b906000526020600020906003020160405180606001604052908160008201548152602001600182015481526020016002820160009054906101000a900460ff16151515158152505090508060400151158015610280575080600001514210155b1561029f5761029c81602001518461077590919063ffffffff16565b92505b5080806001019150506101fe565b508091505090565b7f000000000000000000000000000000000000000000000000000000000000000081565b60007f000000000000000000000000000000000000000000000000000000000000000073ffffffffffffffffffffffffffffffffffffffff166370a08231306040518263ffffffff1660e01b8152600401808273ffffffffffffffffffffffffffffffffffffffff16815260200191505060206040518083038186803b15801561036257600080fd5b505afa158015610376573d6000803e3d6000fd5b505050506040513d602081101561038c57600080fd5b8101908080519060200190929190505050116103f3576040517f08c379a0000000000000000000000000000000000000000000000000000000008152600401808060200182810382526029815260200180610b836029913960400191505060405180910390fd5b6000805b60008054905081101561048f57600080828154811061041257fe5b906000526020600020906003020190508060020160009054906101000a900460ff16158015610445575080600001544210155b156104815761046181600101548461077590919063ffffffff16565b925060018160020160006101000a81548160ff0219169083151502179055505b5080806001019150506103f7565b50600081116104e9576040517f08c379a0000000000000000000000000000000000000000000000000000000008152600401808060200182810382526023815260200180610bac6023913960400191505060405180910390fd5b7f000000000000000000000000000000000000000000000000000000000000000073ffffffffffffffffffffffffffffffffffffffff166370a08231306040518263ffffffff1660e01b8152600401808273ffffffffffffffffffffffffffffffffffffffff16815260200191505060206040518083038186803b15801561057057600080fd5b505afa158015610584573d6000803e3d6000fd5b505050506040513d602081101561059a57600080fd5b8101908080519060200190929190505050811115610677577f000000000000000000000000000000000000000000000000000000000000000073ffffffffffffffffffffffffffffffffffffffff166370a08231306040518263ffffffff1660e01b8152600401808273ffffffffffffffffffffffffffffffffffffffff16815260200191505060206040518083038186803b15801561063957600080fd5b505afa15801561064d573d6000803e3d6000fd5b505050506040513d602081101561066357600080fd5b810190808051906020019092919050505090505b6106e27f0000000000000000000000000000000000000000000000000000000000000000827f000000000000000000000000000000000000000000000000000000000000000073ffffffffffffffffffffffffffffffffffffffff166107fd9092919063ffffffff16565b50565b600081815481106106f257fe5b90600052602060002090600302016000915090508060000154908060010154908060020160009054906101000a900460ff16905083565b7f000000000000000000000000000000000000000000000000000000000000000081565b60007f0000000000000000000000000000000000000000000000000000000000000000905090565b6000808284019050838110156107f3576040517f08c379a000000000000000000000000000000000000000000000000000000000815260040180806020018281038252601b8152602001807f536166654d6174683a206164646974696f6e206f766572666c6f77000000000081525060200191505060405180910390fd5b8091505092915050565b61089a8363a9059cbb60e01b8484604051602401808373ffffffffffffffffffffffffffffffffffffffff16815260200182815260200192505050604051602081830303815290604052907bffffffffffffffffffffffffffffffffffffffffffffffffffffffff19166020820180517bffffffffffffffffffffffffffffffffffffffffffffffffffffffff838183161783525050505061089f565b505050565b6108be8273ffffffffffffffffffffffffffffffffffffffff16610aea565b610930576040517f08c379a000000000000000000000000000000000000000000000000000000000815260040180806020018281038252601f8152602001807f5361666542455032303a2063616c6c20746f206e6f6e2d636f6e74726163740081525060200191505060405180910390fd5b600060608373ffffffffffffffffffffffffffffffffffffffff16836040518082805190602001908083835b6020831061097f578051825260208201915060208101905060208303925061095c565b6001836020036101000a0380198251168184511680821785525050505050509050019150506000604051808303816000865af19150503d80600081146109e1576040519150601f19603f3d011682016040523d82523d6000602084013e6109e6565b606091505b509150915081610a5e576040517f08c379a00000000000000000000000000000000000000000000000000000000081526004018080602001828103825260208152602001807f5361666542455032303a206c6f772d6c6576656c2063616c6c206661696c656481525060200191505060405180910390fd5b600081511115610ae457808060200190516020811015610a7d57600080fd5b8101908080519060200190929190505050610ae3576040517f08c379a000000000000000000000000000000000000000000000000000000000815260040180806020018281038252602a815260200180610b59602a913960400191505060405180910390fd5b5b50505050565b60008060007fc5d2460186f7233c927e7db2dcc703c0e500b653ca82273b7bfad8045d85a47060001b9050833f9150808214158015610b2c57506000801b8214155b92505050919050565b60405180606001604052806000815260200160008152602001600015158152509056fe5361666542455032303a204245503230206f7065726174696f6e20646964206e6f742073756363656564546f6b656e54696d654c6f636b3a206e6f20746f6b656e732068656c6420627920636f6e7472616374546f6b656e54696d654c6f636b3a206e6f20746f6b656e7320746f2072656c65617365a2646970667358221220101c5cb8a2c3d7f7f91a38980df5689b2ec986c8f55cbcc04315e306cabdbc5264736f6c634300060c0033546f6b656e54696d654c6f636b3a20496e76616c69642072656c65617365207363686564756c65",
  "immutableReferences": {
    "1361": [
      {
        "length": 32,
        "start": 733
      },
      {
        "length": 32,
        "start": 1259
      },
      {
        "length": 32,
        "start": 1460
      },
      {
        "length": 32,
        "start": 1694
      },
      {
        "length": 32,
        "start": 1835
      },
      {
        "length": 32,
        "start": 1873
      }
    ],
    "1363": [
      {
        "length": 32,
        "start": 464
      },
      {
        "length": 32,
        "start": 695
      },
      {
        "length": 32,
        "start": 1660
      }
    ]
  },
  "source": "// SPDX-License-Identifier: MIT\r\n\r\npragma solidity >=0.6.12;\r\n\r\n// TeraBlock $TBC Liquidity Tokens Vesting\r\n// 1.5% distribution at TGE | 40 months vesting\r\n// Learn More - https://github.com/TeraBlock/TBC-vesting-contracts\r\n\r\nimport \"./TokenVestingBase.sol\";\r\n\r\ncontract LiquidityVesting  is TokenMultiTimeLock {\r\n    IBEP20 internal TOKEN_ = IBEP20(0x00eaf7d8395cce52daef138d39a1cefa51b97c15ae);\r\n    address internal BENEFICIARY_ = 0x5a4d67ACB74038085e98DD85F4CccCb5972FBc92;\r\n    uint256[] internal RELEASETIMESTAMPS_ = [1622916000,1625097600,1627776000,1630454400,1633046400,1635724800,1638316800,1640995200,1643673600,1646092800,1648771200,1651363200,1654041600,1656633600,1659312000,1661990400,1664582400,1667260800,1669852800,1672531200,1675209600,1677628800,1680307200,1682899200,1685577600,1688169600,1690848000,1693526400,1696118400,1698796800,1701388800,1704067200,1706745600,1709251200,1711929600,1714521600,1717200000,1719792000,1722470400,1725148800];\r\n    uint256[] internal RELEASEAMOUNTS_ = [1970000e18,1970000e18,1970000e18,1970000e18,1970000e18,1970000e18,1970000e18,1970000e18,1970000e18,1970000e18,1970000e18,1970000e18,1970000e18,1970000e18,1970000e18,1970000e18,1970000e18,1970000e18,1970000e18,1970000e18,1970000e18,1970000e18,1970000e18,1970000e18,1970000e18,1970000e18,1970000e18,1970000e18,1970000e18,1970000e18,1970000e18,1970000e18,1970000e18,1970000e18,1970000e18,1970000e18,1970000e18,1970000e18,1970000e18,1970000e18];\r\n\r\n    constructor () public  TokenMultiTimeLock (\r\n        TOKEN_,\r\n        BENEFICIARY_,\r\n        RELEASETIMESTAMPS_,\r\n        RELEASEAMOUNTS_\r\n    )  { }\r\n}\r\n",
  "sourcePath": "C:\\Users\\7386-85615SG 2913642\\Desktop\\HEMANG\\Blockchain\\TBC-vesting-contracts-main\\contracts\\LiquidityVesting.sol",
  "compiler": {
    "name": "solc",
    "version": "0.6.12+commit.27d51765.Emscripten.clang"
  },
  "schemaVersion": "3.4.3",
  "updatedAt": "2021-10-06T04:21:56.912Z",
  "devdoc": {
    "kind": "dev",
    "methods": {
      "beneficiary()": {
        "returns": {
          "_0": "the beneficiary of the tokens."
        }
      },
      "getReleaseAmount()": {
        "returns": {
          "_0": "the time when the tokens are released."
        }
      },
      "token()": {
        "returns": {
          "_0": "the token being held."
        }
      }
    },
    "version": 1
  },
  "userdoc": {
    "kind": "user",
    "methods": {
      "release()": {
        "notice": "Transfers tokens held by timeLock to beneficiary."
      }
    },
    "version": 1
  }
}