{
  "contractName": "TokenMultiTimeLock",
  "abi": [
    {
      "inputs": [
        {
          "internalType": "contract IBEP20",
          "name": "token",
          "type": "address"
        },
        {
          "internalType": "address",
          "name": "beneficiary",
          "type": "address"
        },
        {
          "internalType": "uint256[]",
          "name": "releaseTimestamps",
          "type": "uint256[]"
        },
        {
          "internalType": "uint256[]",
          "name": "releaseAmounts",
          "type": "uint256[]"
        }
      ],
      "stateMutability": "nonpayable",
      "type": "constructor"
    },
    {
      "inputs": [],
      "name": "_beneficiary",
      "outputs": [
        {
          "internalType": "address",
          "name": "",
          "type": "address"
        }
      ],
      "stateMutability": "view",
      "type": "function"
    },
    {
      "inputs": [
        {
          "internalType": "uint256",
          "name": "",
          "type": "uint256"
        }
      ],
      "name": "_releases",
      "outputs": [
        {
          "internalType": "uint256",
          "name": "timestamp",
          "type": "uint256"
        },
        {
          "internalType": "uint256",
          "name": "amount",
          "type": "uint256"
        },
        {
          "internalType": "bool",
          "name": "released",
          "type": "bool"
        }
      ],
      "stateMutability": "view",
      "type": "function"
    },
    {
      "inputs": [],
      "name": "_token",
      "outputs": [
        {
          "internalType": "contract IBEP20",
          "name": "",
          "type": "address"
        }
      ],
      "stateMutability": "view",
      "type": "function"
    },
    {
      "inputs": [],
      "name": "token",
      "outputs": [
        {
          "internalType": "contract IBEP20",
          "name": "",
          "type": "address"
        }
      ],
      "stateMutability": "view",
      "type": "function"
    },
    {
      "inputs": [],
      "name": "beneficiary",
      "outputs": [
        {
          "internalType": "address",
          "name": "",
          "type": "address"
        }
      ],
      "stateMutability": "view",
      "type": "function"
    },
    {
      "inputs": [],
      "name": "getReleaseAmount",
      "outputs": [
        {
          "internalType": "uint256",
          "name": "",
          "type": "uint256"
        }
      ],
      "stateMutability": "view",
      "type": "function"
    },
    {
      "inputs": [],
      "name": "release",
      "outputs": [],
      "stateMutability": "nonpayable",
      "type": "function"
    }
  ],
  "bytecode": "0x60c060405234801561001057600080fd5b50604051610f73380380610f738339818101604052608081101561003357600080fd5b8101908080519060200190929190805190602001909291908051604051939291908464010000000082111561006757600080fd5b8382019150602082018581111561007d57600080fd5b825186602082028301116401000000008211171561009a57600080fd5b8083526020830192505050908051906020019060200280838360005b838110156100d15780820151818401526020810190506100b6565b50505050905001604052602001805160405193929190846401000000008211156100fa57600080fd5b8382019150602082018581111561011057600080fd5b825186602082028301116401000000008211171561012d57600080fd5b8083526020830192505050908051906020019060200280838360005b83811015610164578082015181840152602081019050610149565b5050505090500160405250505080518251146101cb576040517f08c379a0000000000000000000000000000000000000000000000000000000008152600401808060200182810382526027815260200180610f4c6027913960400191505060405180910390fd5b8373ffffffffffffffffffffffffffffffffffffffff1660808173ffffffffffffffffffffffffffffffffffffffff1660601b815250508273ffffffffffffffffffffffffffffffffffffffff1660a08173ffffffffffffffffffffffffffffffffffffffff1660601b8152505060005b82518110156102f7576000604051806060016040528085848151811061025e57fe5b6020026020010151815260200184848151811061027757fe5b60200260200101518152602001600015158152509080600181540180825580915050600190039060005260206000209060030201600090919091909150600082015181600001556020820151816001015560408201518160020160006101000a81548160ff0219169083151502179055505050808060010191505061023c565b505050505060805160601c60a05160601c610c04610348600039806101d052806102b7528061067c5250806102dd52806104eb52806105b4528061069e528061072b52806107515250610c046000f3fe608060405234801561001057600080fd5b506004361061007d5760003560e01c806386d1a69f1161005b57806386d1a69f146101085780638b110a7714610112578063ecd0c0c314610164578063fc0c546a146101985761007d565b806338af3eed146100825780635f8a7eab146100b6578063828cedb7146100d4575b600080fd5b61008a6101cc565b604051808273ffffffffffffffffffffffffffffffffffffffff16815260200191505060405180910390f35b6100be6101f4565b6040518082815260200191505060405180910390f35b6100dc6102b5565b604051808273ffffffffffffffffffffffffffffffffffffffff16815260200191505060405180910390f35b6101106102d9565b005b61013e6004803603602081101561012857600080fd5b81019080803590602001909291905050506106e5565b604051808481526020018381526020018215158152602001935050505060405180910390f35b61016c610729565b604051808273ffffffffffffffffffffffffffffffffffffffff16815260200191505060405180910390f35b6101a061074d565b604051808273ffffffffffffffffffffffffffffffffffffffff16815260200191505060405180910390f35b60007f0000000000000000000000000000000000000000000000000000000000000000905090565b6000806000905060005b6000805490508110156102ad57610213610b35565b6000828154811061022057fe5b906000526020600020906003020160405180606001604052908160008201548152602001600182015481526020016002820160009054906101000a900460ff16151515158152505090508060400151158015610280575080600001514210155b1561029f5761029c81602001518461077590919063ffffffff16565b92505b5080806001019150506101fe565b508091505090565b7f000000000000000000000000000000000000000000000000000000000000000081565b60007f000000000000000000000000000000000000000000000000000000000000000073ffffffffffffffffffffffffffffffffffffffff166370a08231306040518263ffffffff1660e01b8152600401808273ffffffffffffffffffffffffffffffffffffffff16815260200191505060206040518083038186803b15801561036257600080fd5b505afa158015610376573d6000803e3d6000fd5b505050506040513d602081101561038c57600080fd5b8101908080519060200190929190505050116103f3576040517f08c379a0000000000000000000000000000000000000000000000000000000008152600401808060200182810382526029815260200180610b836029913960400191505060405180910390fd5b6000805b60008054905081101561048f57600080828154811061041257fe5b906000526020600020906003020190508060020160009054906101000a900460ff16158015610445575080600001544210155b156104815761046181600101548461077590919063ffffffff16565b925060018160020160006101000a81548160ff0219169083151502179055505b5080806001019150506103f7565b50600081116104e9576040517f08c379a0000000000000000000000000000000000000000000000000000000008152600401808060200182810382526023815260200180610bac6023913960400191505060405180910390fd5b7f000000000000000000000000000000000000000000000000000000000000000073ffffffffffffffffffffffffffffffffffffffff166370a08231306040518263ffffffff1660e01b8152600401808273ffffffffffffffffffffffffffffffffffffffff16815260200191505060206040518083038186803b15801561057057600080fd5b505afa158015610584573d6000803e3d6000fd5b505050506040513d602081101561059a57600080fd5b8101908080519060200190929190505050811115610677577f000000000000000000000000000000000000000000000000000000000000000073ffffffffffffffffffffffffffffffffffffffff166370a08231306040518263ffffffff1660e01b8152600401808273ffffffffffffffffffffffffffffffffffffffff16815260200191505060206040518083038186803b15801561063957600080fd5b505afa15801561064d573d6000803e3d6000fd5b505050506040513d602081101561066357600080fd5b810190808051906020019092919050505090505b6106e27f0000000000000000000000000000000000000000000000000000000000000000827f000000000000000000000000000000000000000000000000000000000000000073ffffffffffffffffffffffffffffffffffffffff166107fd9092919063ffffffff16565b50565b600081815481106106f257fe5b90600052602060002090600302016000915090508060000154908060010154908060020160009054906101000a900460ff16905083565b7f000000000000000000000000000000000000000000000000000000000000000081565b60007f0000000000000000000000000000000000000000000000000000000000000000905090565b6000808284019050838110156107f3576040517f08c379a000000000000000000000000000000000000000000000000000000000815260040180806020018281038252601b8152602001807f536166654d6174683a206164646974696f6e206f766572666c6f77000000000081525060200191505060405180910390fd5b8091505092915050565b61089a8363a9059cbb60e01b8484604051602401808373ffffffffffffffffffffffffffffffffffffffff16815260200182815260200192505050604051602081830303815290604052907bffffffffffffffffffffffffffffffffffffffffffffffffffffffff19166020820180517bffffffffffffffffffffffffffffffffffffffffffffffffffffffff838183161783525050505061089f565b505050565b6108be8273ffffffffffffffffffffffffffffffffffffffff16610aea565b610930576040517f08c379a000000000000000000000000000000000000000000000000000000000815260040180806020018281038252601f8152602001807f5361666542455032303a2063616c6c20746f206e6f6e2d636f6e74726163740081525060200191505060405180910390fd5b600060608373ffffffffffffffffffffffffffffffffffffffff16836040518082805190602001908083835b6020831061097f578051825260208201915060208101905060208303925061095c565b6001836020036101000a0380198251168184511680821785525050505050509050019150506000604051808303816000865af19150503d80600081146109e1576040519150601f19603f3d011682016040523d82523d6000602084013e6109e6565b606091505b509150915081610a5e576040517f08c379a00000000000000000000000000000000000000000000000000000000081526004018080602001828103825260208152602001807f5361666542455032303a206c6f772d6c6576656c2063616c6c206661696c656481525060200191505060405180910390fd5b600081511115610ae457808060200190516020811015610a7d57600080fd5b8101908080519060200190929190505050610ae3576040517f08c379a000000000000000000000000000000000000000000000000000000000815260040180806020018281038252602a815260200180610b59602a913960400191505060405180910390fd5b5b50505050565b60008060007fc5d2460186f7233c927e7db2dcc703c0e500b653ca82273b7bfad8045d85a47060001b9050833f9150808214158015610b2c57506000801b8214155b92505050919050565b60405180606001604052806000815260200160008152602001600015158152509056fe5361666542455032303a204245503230206f7065726174696f6e20646964206e6f742073756363656564546f6b656e54696d654c6f636b3a206e6f20746f6b656e732068656c6420627920636f6e7472616374546f6b656e54696d654c6f636b3a206e6f20746f6b656e7320746f2072656c65617365a2646970667358221220b446104c7b76e7d95c2bb15e7af8f99f04a7a53c7f8231d85cc922b9027d4c1764736f6c634300060c0033546f6b656e54696d654c6f636b3a20496e76616c69642072656c65617365207363686564756c65",
  "immutableReferences": {
    "1361": [
      {
        "length": 32,
        "start": 733
      },
      {
        "length": 32,
        "start": 1259
      },
      {
        "length": 32,
        "start": 1460
      },
      {
        "length": 32,
        "start": 1694
      },
      {
        "length": 32,
        "start": 1835
      },
      {
        "length": 32,
        "start": 1873
      }
    ],
    "1363": [
      {
        "length": 32,
        "start": 464
      },
      {
        "length": 32,
        "start": 695
      },
      {
        "length": 32,
        "start": 1660
      }
    ]
  },
  "source": "// SPDX-License-Identifier: MIT\r\n\r\npragma solidity ^0.6.0;\r\n\r\n\r\nlibrary SafeMath {\r\n    /**\r\n     * @dev Returns the addition of two unsigned integers, reverting on\r\n     * overflow.\r\n     *\r\n     * Counterpart to Solidity's `+` operator.\r\n     *\r\n     * Requirements:\r\n     * - Addition cannot overflow.\r\n     */\r\n    function add(uint256 a, uint256 b) internal pure returns (uint256) {\r\n        uint256 c = a + b;\r\n        require(c >= a, \"SafeMath: addition overflow\");\r\n\r\n        return c;\r\n    }\r\n\r\n    /**\r\n     * @dev Returns the subtraction of two unsigned integers, reverting on\r\n     * overflow (when the result is negative).\r\n     *\r\n     * Counterpart to Solidity's `-` operator.\r\n     *\r\n     * Requirements:\r\n     * - Subtraction cannot overflow.\r\n     */\r\n    function sub(uint256 a, uint256 b) internal pure returns (uint256) {\r\n        return sub(a, b, \"SafeMath: subtraction overflow\");\r\n    }\r\n\r\n    /**\r\n     * @dev Returns the subtraction of two unsigned integers, reverting with custom message on\r\n     * overflow (when the result is negative).\r\n     *\r\n     * Counterpart to Solidity's `-` operator.\r\n     *\r\n     * Requirements:\r\n     * - Subtraction cannot overflow.\r\n     */\r\n    function sub(uint256 a, uint256 b, string memory errorMessage) internal pure returns (uint256) {\r\n        require(b <= a, errorMessage);\r\n        uint256 c = a - b;\r\n\r\n        return c;\r\n    }\r\n\r\n    /**\r\n     * @dev Returns the multiplication of two unsigned integers, reverting on\r\n     * overflow.\r\n     *\r\n     * Counterpart to Solidity's `*` operator.\r\n     *\r\n     * Requirements:\r\n     * - Multiplication cannot overflow.\r\n     */\r\n    function mul(uint256 a, uint256 b) internal pure returns (uint256) {\r\n        // Gas optimization: this is cheaper than requiring 'a' not being zero, but the\r\n        // benefit is lost if 'b' is also tested.\r\n        // See: https://github.com/OpenZeppelin/openzeppelin-contracts/pull/522\r\n        if (a == 0) {\r\n            return 0;\r\n        }\r\n\r\n        uint256 c = a * b;\r\n        require(c / a == b, \"SafeMath: multiplication overflow\");\r\n\r\n        return c;\r\n    }\r\n\r\n    /**\r\n     * @dev Returns the integer division of two unsigned integers. Reverts on\r\n     * division by zero. The result is rounded towards zero.\r\n     *\r\n     * Counterpart to Solidity's `/` operator. Note: this function uses a\r\n     * `revert` opcode (which leaves remaining gas untouched) while Solidity\r\n     * uses an invalid opcode to revert (consuming all remaining gas).\r\n     *\r\n     * Requirements:\r\n     * - The divisor cannot be zero.\r\n     */\r\n    function div(uint256 a, uint256 b) internal pure returns (uint256) {\r\n        return div(a, b, \"SafeMath: division by zero\");\r\n    }\r\n\r\n    /**\r\n     * @dev Returns the integer division of two unsigned integers. Reverts with custom message on\r\n     * division by zero. The result is rounded towards zero.\r\n     *\r\n     * Counterpart to Solidity's `/` operator. Note: this function uses a\r\n     * `revert` opcode (which leaves remaining gas untouched) while Solidity\r\n     * uses an invalid opcode to revert (consuming all remaining gas).\r\n     *\r\n     * Requirements:\r\n     * - The divisor cannot be zero.\r\n     */\r\n    function div(uint256 a, uint256 b, string memory errorMessage) internal pure returns (uint256) {\r\n        // Solidity only automatically asserts when dividing by 0\r\n        require(b > 0, errorMessage);\r\n        uint256 c = a / b;\r\n        // assert(a == b * c + a % b); // There is no case in which this doesn't hold\r\n\r\n        return c;\r\n    }\r\n\r\n    /**\r\n     * @dev Returns the remainder of dividing two unsigned integers. (unsigned integer modulo),\r\n     * Reverts when dividing by zero.\r\n     *\r\n     * Counterpart to Solidity's `%` operator. This function uses a `revert`\r\n     * opcode (which leaves remaining gas untouched) while Solidity uses an\r\n     * invalid opcode to revert (consuming all remaining gas).\r\n     *\r\n     * Requirements:\r\n     * - The divisor cannot be zero.\r\n     */\r\n    function mod(uint256 a, uint256 b) internal pure returns (uint256) {\r\n        return mod(a, b, \"SafeMath: modulo by zero\");\r\n    }\r\n\r\n    /**\r\n     * @dev Returns the remainder of dividing two unsigned integers. (unsigned integer modulo),\r\n     * Reverts with custom message when dividing by zero.\r\n     *\r\n     * Counterpart to Solidity's `%` operator. This function uses a `revert`\r\n     * opcode (which leaves remaining gas untouched) while Solidity uses an\r\n     * invalid opcode to revert (consuming all remaining gas).\r\n     *\r\n     * Requirements:\r\n     * - The divisor cannot be zero.\r\n     */\r\n    function mod(uint256 a, uint256 b, string memory errorMessage) internal pure returns (uint256) {\r\n        require(b != 0, errorMessage);\r\n        return a % b;\r\n    }\r\n}\r\n\r\nlibrary Address {\r\n    /**\r\n     * @dev Returns true if `account` is a contract.\r\n     *\r\n     * [IMPORTANT]\r\n     * ====\r\n     * It is unsafe to assume that an address for which this function returns\r\n     * false is an externally-owned account (EOA) and not a contract.\r\n     *\r\n     * Among others, `isContract` will return false for the following\r\n     * types of addresses:\r\n     *\r\n     *  - an externally-owned account\r\n     *  - a contract in construction\r\n     *  - an address where a contract will be created\r\n     *  - an address where a contract lived, but was destroyed\r\n     * ====\r\n     */\r\n    function isContract(address account) internal view returns (bool) {\r\n        // According to EIP-1052, 0x0 is the value returned for not-yet created accounts\r\n        // and 0xc5d2460186f7233c927e7db2dcc703c0e500b653ca82273b7bfad8045d85a470 is returned\r\n        // for accounts without code, i.e. `keccak256('')`\r\n        bytes32 codehash;\r\n        bytes32 accountHash = 0xc5d2460186f7233c927e7db2dcc703c0e500b653ca82273b7bfad8045d85a470;\r\n        // solhint-disable-next-line no-inline-assembly\r\n        assembly { codehash := extcodehash(account) }\r\n        return (codehash != accountHash && codehash != 0x0);\r\n    }\r\n\r\n    /**\r\n     * @dev Replacement for Solidity's `transfer`: sends `amount` wei to\r\n     * `recipient`, forwarding all available gas and reverting on errors.\r\n     *\r\n     * https://eips.ethereum.org/EIPS/eip-1884[EIP1884] increases the gas cost\r\n     * of certain opcodes, possibly making contracts go over the 2300 gas limit\r\n     * imposed by `transfer`, making them unable to receive funds via\r\n     * `transfer`. {sendValue} removes this limitation.\r\n     *\r\n     * https://diligence.consensys.net/posts/2019/09/stop-using-soliditys-transfer-now/[Learn more].\r\n     *\r\n     * IMPORTANT: because control is transferred to `recipient`, care must be\r\n     * taken to not create reentrancy vulnerabilities. Consider using\r\n     * {ReentrancyGuard} or the\r\n     * https://solidity.readthedocs.io/en/v0.5.11/security-considerations.html#use-the-checks-effects-interactions-pattern[checks-effects-interactions pattern].\r\n     */\r\n    function sendValue(address payable recipient, uint256 amount) internal {\r\n        require(address(this).balance >= amount, \"Address: insufficient balance\");\r\n\r\n        // solhint-disable-next-line avoid-low-level-calls, avoid-call-value\r\n        (bool success, ) = recipient.call{ value: amount }(\"\");\r\n        require(success, \"Address: unable to send value, recipient may have reverted\");\r\n    }\r\n}\r\n\r\nlibrary SafeBEP20 {\r\n    using SafeMath for uint256;\r\n    using Address for address;\r\n\r\n    function safeTransfer(IBEP20 token, address to, uint256 value) internal {\r\n        _callOptionalReturn(token, abi.encodeWithSelector(token.transfer.selector, to, value));\r\n    }\r\n\r\n    function safeTransferFrom(IBEP20 token, address from, address to, uint256 value) internal {\r\n        _callOptionalReturn(token, abi.encodeWithSelector(token.transferFrom.selector, from, to, value));\r\n    }\r\n\r\n    function safeApprove(IBEP20 token, address spender, uint256 value) internal {\r\n        // safeApprove should only be called when setting an initial allowance,\r\n        // or when resetting it to zero. To increase and decrease it, use\r\n        // 'safeIncreaseAllowance' and 'safeDecreaseAllowance'\r\n        // solhint-disable-next-line max-line-length\r\n        require((value == 0) || (token.allowance(address(this), spender) == 0),\r\n            \"SafeBEP20: approve from non-zero to non-zero allowance\"\r\n        );\r\n        _callOptionalReturn(token, abi.encodeWithSelector(token.approve.selector, spender, value));\r\n    }\r\n\r\n    function safeIncreaseAllowance(IBEP20 token, address spender, uint256 value) internal {\r\n        uint256 newAllowance = token.allowance(address(this), spender).add(value);\r\n        _callOptionalReturn(token, abi.encodeWithSelector(token.approve.selector, spender, newAllowance));\r\n    }\r\n\r\n    function safeDecreaseAllowance(IBEP20 token, address spender, uint256 value) internal {\r\n        uint256 newAllowance = token.allowance(address(this), spender).sub(value, \"SafeBEP20: decreased allowance below zero\");\r\n        _callOptionalReturn(token, abi.encodeWithSelector(token.approve.selector, spender, newAllowance));\r\n    }\r\n\r\n    /**\r\n     * @dev Imitates a Solidity high-level call (i.e. a regular function call to a contract), relaxing the requirement\r\n     * on the return value: the return value is optional (but if data is returned, it must not be false).\r\n     * @param token The token targeted by the call.\r\n     * @param data The call data (encoded using abi.encode or one of its variants).\r\n     */\r\n    function _callOptionalReturn(IBEP20 token, bytes memory data) private {\r\n        // We need to perform a low level call here, to bypass Solidity's return data size checking mechanism, since\r\n        // we're implementing it ourselves.\r\n\r\n        // A Solidity high level call has three parts:\r\n        //  1. The target address is checked to verify it contains contract code\r\n        //  2. The call itself is made, and success asserted\r\n        //  3. The return value is decoded, which in turn checks the size of the returned data.\r\n        // solhint-disable-next-line max-line-length\r\n        require(address(token).isContract(), \"SafeBEP20: call to non-contract\");\r\n\r\n        // solhint-disable-next-line avoid-low-level-calls\r\n        (bool success, bytes memory returndata) = address(token).call(data);\r\n        require(success, \"SafeBEP20: low-level call failed\");\r\n\r\n        if (returndata.length > 0) { // Return data is optional\r\n            // solhint-disable-next-line max-line-length\r\n            require(abi.decode(returndata, (bool)), \"SafeBEP20: BEP20 operation did not succeed\");\r\n        }\r\n    }\r\n}\r\n\r\ninterface IBEP20 {\r\n    function totalSupply() external view returns (uint256);\r\n    function decimals() external view returns (uint8);\r\n    function symbol() external view returns (string memory);\r\n    function name() external view returns (string memory);\r\n    function getOwner() external view returns (address);\r\n    function balanceOf(address account) external view returns (uint256);\r\n    function transfer(address recipient, uint256 amount) external returns (bool);\r\n    function allowance(address _owner, address spender) external view returns (uint256);\r\n    function approve(address spender, uint256 amount) external returns (bool);\r\n    function transferFrom(address sender, address recipient, uint256 amount) external returns (bool);\r\n    event Transfer(address indexed from, address indexed to, uint256 value);\r\n    event Approval(address indexed owner, address indexed spender, uint256 value);\r\n}\r\n\r\ncontract TokenMultiTimeLock {\r\n\r\n    using SafeMath for uint256;\r\n    using SafeBEP20 for IBEP20;\r\n\r\n    struct Release {\r\n        uint256 timestamp;\r\n        uint256 amount;\r\n        bool released;\r\n    }\r\n\r\n    Release[] public _releases;\r\n\r\n    // IBEP20 basic token contract being held\r\n    IBEP20 immutable public _token;\r\n\r\n    // beneficiary of tokens after they are released\r\n    address immutable public _beneficiary;\r\n\r\n    constructor (IBEP20 token, address beneficiary, uint256[] memory releaseTimestamps, uint256[] memory releaseAmounts) public {\r\n\r\n        require(releaseTimestamps.length == releaseAmounts.length, \"TokenTimeLock: Invalid release schedule\");\r\n\r\n        _token = token;\r\n        _beneficiary = beneficiary;\r\n\r\n        for (uint256 i = 0; i < releaseTimestamps.length; i++) {\r\n            _releases.push(Release(releaseTimestamps[i], releaseAmounts[i], false));\r\n        }\r\n\r\n    }\r\n\r\n    /**\r\n     * @return the token being held.\r\n     */\r\n    function token() public view virtual returns (IBEP20) {\r\n        return _token;\r\n    }\r\n\r\n    /**\r\n     * @return the beneficiary of the tokens.\r\n     */\r\n    function beneficiary() public view virtual returns (address) {\r\n        return _beneficiary;\r\n    }\r\n\r\n    /**\r\n     * @return the time when the tokens are released.\r\n     */\r\n    function getReleaseAmount() public view virtual returns (uint256) {\r\n\r\n        uint256 releaseAmount = 0;\r\n\r\n        for (uint256 i = 0; i < _releases.length; i++) {\r\n            Release memory r = _releases[i];\r\n\r\n            if(!r.released && block.timestamp >= r.timestamp)\r\n                releaseAmount = releaseAmount.add(r.amount);\r\n        }\r\n\r\n        return releaseAmount;\r\n    }\r\n\r\n    /**\r\n     * @notice Transfers tokens held by timeLock to beneficiary.\r\n     */\r\n    function release() public virtual {\r\n\r\n        require(_token.balanceOf(address(this)) > 0, \"TokenTimeLock: no tokens held by contract\");\r\n\r\n        uint256 releaseAmount = 0;\r\n\r\n        for (uint256 i = 0; i < _releases.length; i++) {\r\n            Release storage r = _releases[i];\r\n\r\n            if(!r.released && block.timestamp >= r.timestamp) {\r\n                releaseAmount = releaseAmount.add(r.amount);\r\n                r.released = true;\r\n            }\r\n\r\n        }\r\n\r\n        require(releaseAmount > 0, \"TokenTimeLock: no tokens to release\");\r\n\r\n        if(releaseAmount > _token.balanceOf(address(this)))\r\n            releaseAmount = _token.balanceOf(address(this));\r\n\r\n        _token.safeTransfer(_beneficiary, releaseAmount);\r\n    }\r\n}",
  "sourcePath": "C:\\Users\\7386-85615SG 2913642\\Desktop\\HEMANG\\Blockchain\\TBC-vesting-contracts-main\\contracts\\TokenVestingBase.sol",
  "compiler": {
    "name": "solc",
    "version": "0.6.12+commit.27d51765.Emscripten.clang"
  },
  "schemaVersion": "3.4.3",
  "updatedAt": "2021-10-06T04:21:57.113Z",
  "devdoc": {
    "kind": "dev",
    "methods": {
      "beneficiary()": {
        "returns": {
          "_0": "the beneficiary of the tokens."
        }
      },
      "getReleaseAmount()": {
        "returns": {
          "_0": "the time when the tokens are released."
        }
      },
      "token()": {
        "returns": {
          "_0": "the token being held."
        }
      }
    },
    "version": 1
  },
  "userdoc": {
    "kind": "user",
    "methods": {
      "release()": {
        "notice": "Transfers tokens held by timeLock to beneficiary."
      }
    },
    "version": 1
  }
}